:020000040800F2
:100000000004002071180008511A0008511A000855
:10001000511A0008511A0008511A0008511A000814
:10002000511A0008511A0008511A0008811A0008D4
:10003000511A0008511A0008511A0008611B0008E3
:10004000511A000811390008511A0008511A000805
:10005000511A0008511A0008F1360008213700082B
:100060005137000881370008B1370008112F000808
:10007000412F0008712F0008A12F0008D12F000880
:100080000130000831300008511A0008511A0008E8
:10009000511A0008511A0008511A0008E1370008E7
:1000A000511A0008E1450008511A0008511A0008C9
:1000B00001460008511A0008117C0008C13E0008E2
:1000C000F13F0008511A0008511A0008511A00089F
:1000D000511A0008E14800080149000821490008B8
:1000E000713800084139000871390008511A0008B8
:1000F000511A0008511A0008511A0008511A000834
:10010000511A0008511A000821460008511A000827
:10011000511A0008511A0008511A0008511A000813
:100120006130000891300008C1300008F13000084B
:1001300010B502F0B5FC332401F0AAFD05F0E8FE8D
:1001400005F04EFE15E06420013C01F0E1FFA4B291
:1001500007F03EFE88B9642001F0DAFF601E84B229
:1001600007F036FE48B9642001F0D2FF611E8CB260
:100170001CB107F02DFE0028E5D0002405F028F979
:100180003CB1237F0E2B0FD0322001F0C1FF002C99
:10019000F7D14CF63010C0F600004FF42C7140221D
:1001A00005F01EF90446EFE7204602F029F8002486
:1001B000EAE700BFAFF30080AFF30080AFF3008049
:1001C00081F0004102E000BF83F0004330B54FEA08
:1001D00041044FEA430594EA050F08BF90EA020F75
:1001E0001FBF54EA000C55EA020C7FEA645C7FEA08
:1001F000655C00F0E2804FEA5454D4EB5555B8BF2B
:100200006D420CDD2C4480EA020281EA030382EA9B
:10021000000083EA010180EA020281EA0303362D2D
:1002200088BF30BD11F0004F4FEA01314FF4801C00
:100230004CEA113102D0404261EB410113F0004F12
:100240004FEA03334CEA133302D0524263EB4303C9
:1002500094EA050F00F0A780A4F10104D5F1200E67
:100260000DDB02FA0EFC22FA05F2801841F10001C2
:1002700003FA0EF2801843FA05F359410EE0A5F196
:1002800020050EF1200E012A03FA0EFC28BF4CF0C7
:10029000020C43FA05F3C01851EBE37101F000457D
:1002A00007D54FF0000EDCF1000C7EEB00006EEB8A
:1002B0000101B1F5801F1BD3B1F5001F0CD3490814
:1002C0005FEA30004FEA3C0C04F101044FEA44526B
:1002D00012F5800F80F09A80BCF1004F08BF5FEAF2
:1002E000500C50F1000041EB045141EA050130BDD2
:1002F0005FEA4C0C404141EB010111F4801FA4F175
:100300000104E9D191F0000F04BF01460020B1FAC9
:1003100081F308BF2033A3F10B03B3F120020CDA01
:100320000C3208DD02F1140CC2F10C0201FA0CF0DF
:1003300021FA02F10CE002F11402D8BFC2F1200C44
:1003400001FA02F120FA0CFCDCBF41EA0C019040FA
:10035000E41AA2BF01EB0451294330BD6FEA040443
:100360001F3C1CDA0C340EDC04F11404C4F120022E
:1003700020FA04F001FA02F340EA030021FA04F340
:1003800045EA030130BDC4F10C04C4F1200220FA97
:1003900002F001FA04F340EA0300294630BD21FAD5
:1003A00004F0294630BD94F0000F83F4801306BF9B
:1003B00081F480110134013D4EE77FEA645C18BF8F
:1003C0007FEA655C29D094EA050F08BF90EA020F26
:1003D00005D054EA000C04BF1946104630BD91EA1E
:1003E000030F1EBF0021002030BD5FEA545C05D121
:1003F0004000494128BF41F0004130BD14F5800460
:100400003CBF01F5801130BD01F0004545F0FE41D3
:1004100041F470014FF0000030BD7FEA645C1ABF08
:10042000194610467FEA655C1CBF0B46024650EA3F
:10043000013406BF52EA033591EA030F41F400216B
:1004400030BD00BF90F0000F04BF0021704730B5F1
:100450004FF4806404F132044FF000054FF00001C6
:1004600050E700BF90F0000F04BF0021704730B587
:100470004FF4806404F1320410F0004548BF40425C
:100480004FF000013EE700BF42004FEAE2014FEAB1
:1004900031014FEA02701FBF12F07F4393F07F4F8C
:1004A00081F06051704792F0000F14BF93F07F4FBE
:1004B000704730B54FF4607401F0004521F0004101
:1004C00020E700BF50EA010208BF704730B54FF087
:1004D00000050AE050EA010208BF704730B511F08C
:1004E000004502D5404261EB41014FF4806404F1C4
:1004F00032045FEA915C3FF4DCAE4FF003025FEA46
:10050000DC0C18BF03325FEADC0C18BF033202EBCD
:10051000DC02C2F1200300FA03FC20FA02F001FA27
:1005200003FE40EA0E0021FA02F11444C1E600BFC6
:1005300070B54FF0FF0C4CF4E06C1CEA11541DBF79
:100540001CEA135594EA0C0F95EA0C0F00F0DEF844
:100550002C4481EA030621EA4C5123EA4C5350EA29
:10056000013518BF52EA033541F4801143F480137A
:1005700038D0A0FB02CE4FF00005E1FB02E506F00B
:100580000042E0FB03E54FF00006E1FB03569CF060
:10059000000F18BF4EF0010EA4F1FF04B6F5007F66
:1005A00064F5407404D25FEA4E0E6D4146EB0606D8
:1005B00042EAC62141EA55514FEAC52040EA5E5061
:1005C0004FEACE2EB4F1FD0C88BFBCF5E06F1ED80B
:1005D000BEF1004F08BF5FEA500E50F1000041EB42
:1005E000045170BD06F0004646EA010140EA0200EF
:1005F00081EA0301B4EB5C04C2BFD4EB0C0541EA11
:10060000045170BD41F480114FF0000E013C00F325
:10061000AB8014F1360FDEBF002001F0004170BD49
:10062000C4F10004203C35DA0C341BDC04F1140462
:10063000C4F1200500FA05F320FA04F001FA05F2EE
:1006400040EA020001F0004221F0004110EBD370BB
:1006500021FA04F642EB06015EEA430E08BF20EAE7
:10066000D37070BDC4F10C04C4F1200500FA04F38A
:1006700020FA05F001FA04F240EA020001F000411C
:1006800010EBD37041F100015EEA430E08BF20EA8F
:10069000D37070BDC4F1200500FA05F24EEA020ED7
:1006A00020FA04F301FA05F243EA020321FA04F006
:1006B00001F0004121FA04F220EA020000EBD370BD
:1006C0005EEA430E08BF20EAD37070BD94F0000FBD
:1006D0000FD101F00046400041EB010111F4801FF1
:1006E00008BF013CF7D041EA060195F0000F18BFA2
:1006F000704703F00046520043EB030313F4801FDE
:1007000008BF013DF7D043EA0603704794EA0C0F97
:100710000CEA135518BF95EA0C0F0CD050EA4106AD
:1007200018BF52EA4306D1D181EA030101F000412A
:100730004FF0000070BD50EA410606BF1046194652
:1007400052EA430619D094EA0C0F02D150EA01365E
:1007500013D195EA0C0F05D152EA03361CBF10469F
:1007600019460AD181EA030101F0004141F0FE413E
:1007700041F470014FF0000070BD41F0FE4141F4C2
:10078000780170BD70B54FF0FF0C4CF4E06C1CEAC2
:1007900011541DBF1CEA135594EA0C0F95EA0C0F77
:1007A00000F0A7F8A4EB050481EA030E52EA033532
:1007B0004FEA013100F088804FEA03334FF0805553
:1007C00045EA131343EA12634FEA022245EA111580
:1007D00045EA10654FEA00260EF000419D4208BF31
:1007E000964244F1FD0404F5407402D25B084FEADE
:1007F0003202B61A65EB03055B084FEA32024FF48A
:1008000080104FF4002CB6EB020E75EB030E22BFE6
:10081000B61A754640EA0C005B084FEA3202B6EBA6
:10082000020E75EB030E22BFB61A754640EA5C0055
:100830005B084FEA3202B6EB020E75EB030E22BFE5
:10084000B61A754640EA9C005B084FEA3202B6EBE6
:10085000020E75EB030E22BFB61A754640EADC00A5
:1008600055EA060E18D04FEA051545EA16754FEA07
:1008700006164FEAC30343EA52734FEAC2025FEA25
:100880001C1CC0D111F4801F0BD141EA00014FF0B4
:1008900000004FF0004CB6E711F4801F04BF014385
:1008A0000020B4F1FD0C88BFBCF5E06F3FF6AFAEA1
:1008B000B5EB030C04BFB6EB020C5FEA500C50F131
:1008C000000041EB045170BD0EF0004E4EEA1131B4
:1008D00014EB5C04C2BFD4EB0C0541EA045170BDBB
:1008E00041F480114FF0000E013C90E645EA060EFF
:1008F0008DE60CEA135594EA0C0F08BF95EA0C0F2D
:100900003FF43BAF94EA0C0F0AD150EA01347FF474
:1009100034AF95EA0C0F7FF425AF104619462CE74B
:1009200095EA0C0F06D152EA03353FF4FDAE1046AE
:10093000194622E750EA410618BF52EA43067FF4FF
:10094000C5AE50EA41047FF40DAF52EA43057FF48F
:10095000EBAE12E700000000000000000000000005
:100960004FF0FF3C06E000BF4FF0010C02E000BF7B
:100970004FF0010C4DF804CD4FEA410C7FEA6C5C5E
:100980004FEA430C18BF7FEA6C5C1BD001B050EA01
:10099000410C0CBF52EA430C91EA030F02BF90EAEC
:1009A000020F0020704710F1000F91EA030F58BFAB
:1009B000994208BF90422CBFD8176FEAE37040F00D
:1009C000010070474FEA410C7FEA6C5C02D150EAAB
:1009D000013C07D14FEA430C7FEA6C5CD6D152EA66
:1009E000033CD3D05DF8040B704700BF844610462B
:1009F00062468C461946634600E000BF01B5FFF72A
:100A0000B7FF002848BF10F1000F01BD4DF808EDF9
:100A1000FFF7F4FF0CBF012000205DF808FB00BFCA
:100A20004DF808EDFFF7EAFF34BF012000205DF824
:100A300008FB00BF4DF808EDFFF7E0FF94BF012071
:100A400000205DF808FB00BF4DF808EDFFF7CEFF72
:100A500094BF012000205DF808FB00BF4DF808EDB1
:100A6000FFF7C4FF34BF012000205DF808FB00BF82
:100A70004FEA410212F5001215D211D56FF47873C6
:100A8000B3EB625212D94FEAC12343F0004343EA69
:100A9000505311F0004F23FA02F018BF4042704744
:100AA0004FF00000704750EA013005D111F00040CE
:100AB00008BF6FF0004070474FF00000704700BF64
:100AC0004A0011D212F5001211D20DD56FF47873CD
:100AD000B3EB62520ED44FEAC12343F0004343EA22
:100AE000505323FA02F070474FF00000704750EA6D
:100AF000013002D14FF0FF3070474FF000007047D7
:100B00004FEA4102B2F1E04324BFB3F5001CDCF12F
:100B1000FE5C0DD901F0004C4FEAC0024CEA507067
:100B2000B2F1004F40EB830008BF20F00100704796
:100B300011F0804F21D113F13872BCBF01F0004099
:100B4000704741F480114FEA5252C2F11802C2F1CB
:100B5000200C10FA0CF320FA02F018BF40F001004C
:100B60004FEAC1234FEAD32303FA0CFC40EA0C00FE
:100B700023FA02F34FEA4303CCE77FEA625307D13B
:100B800050EA01331EBF4FF0FE4040F44000704772
:100B900001F0004040F0FE4040F40000704700BF0C
:100BA00080F0004002E000BF81F0004142001FBF22
:100BB0005FEA410392EA030F7FEA226C7FEA236C2B
:100BC0006AD04FEA1262D2EB1363C1BFD218414020
:100BD00048404140B8BF5B42192B88BF704710F0B6
:100BE000004F40F4000020F07F4018BF404211F059
:100BF000004F41F4000121F07F4118BF494292EAC1
:100C0000030F3FD0A2F1010241FA03FC10EB0C00EC
:100C1000C3F1200301FA03F100F0004302D5494279
:100C200060EB4000B0F5000F13D3B0F1807F06D326
:100C300040084FEA310102F10102FE2A51D2B1F11E
:100C4000004F40EBC25008BF20F0010040EA030013
:100C50007047490040EB000010F4000FA2F10102C0
:100C6000EDD1B0FA80FCACF1080CB2EB0C0200FA4A
:100C70000CF0AABF00EBC25052421843BCBFD04098
:100C80001843704792F0000F81F4000106BF80F412
:100C900000000132013BB5E74FEA41037FEA226CD5
:100CA00018BF7FEA236C21D092EA030F04D092F0A0
:100CB000000F08BF0846704790EA010F1CBF0020D4
:100CC000704712F07F4F04D1400028BF40F0004031
:100CD000704712F100723CBF00F50000704700F051
:100CE000004343F0FE4040F4000070477FEA226278
:100CF00016BF08467FEA23630146420206BF5FEA49
:100D0000412390EA010F40F4800070474FF0000348
:100D100004E000BF10F0004348BF40425FEA000C0F
:100D200008BF704743F0964301464FF000001CE0B7
:100D300050EA010208BF70474FF000030AE000BF0D
:100D400050EA010208BF704711F0004302D540424B
:100D500061EB41015FEA010C02BF844601460020BD
:100D600043F0B64308BFA3F18053A3F50003BCFAD8
:100D70008CF2083AA3EBC25310DB01FA02FC634485
:100D800000FA02FCC2F12002BCF1004F20FA02F28C
:100D900043EB020008BF20F00100704702F120027F
:100DA00001FA02FCC2F1200250EA4C0021FA02F2E0
:100DB00043EB020008BF20EADC707047000000002F
:100DC0004FF0FF0C1CEAD0521EBF1CEAD15392EA2E
:100DD0000C0F93EA0C0F6FD01A4480EA010C40020A
:100DE00018BF5FEA41211ED04FF0006343EA501064
:100DF00043EA5111A0FB01310CF00040B1F5000FA6
:100E00003EBF490041EAD3715B0040EA010062F154
:100E10007F02FD2A1DD8B3F1004F40EBC25008BF3E
:100E200020F00100704790F0000F0CF0004C08BF5C
:100E300049024CEA502040EA51207F3AC2BFD2F129
:100E4000FF0340EAC250704740F400004FF0000337
:100E5000013A5DDC12F1190FDCBF00F00040704771
:100E6000C2F10002410021FA02F1C2F1200200FAAF
:100E700002FC5FEA310040F1000053EA4C0308BF76
:100E800020EADC70704792F0000F00F0004C02BFC7
:100E9000400010F4000F013AF9D040EA0C0093F042
:100EA000000F01F0004C02BF490011F4000F013B9C
:100EB000F9D041EA0C018FE70CEAD15392EA0C0F0A
:100EC00018BF93EA0C0F0AD030F0004C18BF31F075
:100ED000004CD8D180EA010000F00040704790F04B
:100EE000000F17BF90F0004F084691F0000F91F0EF
:100EF000004F14D092EA0C0F01D142020FD193EAB5
:100F00000C0F03D14B0218BF084608D180EA01003C
:100F100000F0004040F0FE4040F40000704740F018
:100F2000FE4040F4400070474FF0FF0C1CEAD052E6
:100F30001EBF1CEAD15392EA0C0F93EA0C0F69D042
:100F4000A2EB030280EA010C49024FEA402037D0AD
:100F50004FF0805343EA111143EA10130CF00040A4
:100F60008B4238BF5B0042F17D024FF4000C8B4294
:100F700024BF5B1A40EA0C00B3EB510F24BFA3EB74
:100F8000510340EA5C00B3EB910F24BFA3EB910344
:100F900040EA9C00B3EBD10F24BFA3EBD10340EA9E
:100FA000DC001B0118BF5FEA1C1CE0D1FD2A3FF6E4
:100FB00050AF8B4240EBC25008BF20F00100704799
:100FC0000CF0004C4CEA50207F32C2BFD2F1FF033C
:100FD00040EAC250704740F400004FF00003013A6D
:100FE00037E792F0000F00F0004C02BF400010F411
:100FF000000F013AF9D040EA0C0093F0000F01F025
:10100000004C02BF490011F4000F013BF9D041EA46
:101010000C0195E70CEAD15392EA0C0F08D1420279
:101020007FF47DAF93EA0C0F7FF470AF084676E74C
:1010300093EA0C0F04D14B023FF44CAF08466EE725
:1010400030F0004C18BF31F0004CCAD130F00042F3
:101050007FF45CAF31F000437FF43CAF5FE700BF4B
:101060004FF0FF3C06E000BF4FF0010C02E000BF74
:101070004FF0010C4DF804CD4FEA40024FEA410316
:101080007FEA226C18BF7FEA236C11D001B052EACC
:10109000530C18BF90EA010F58BFB2EB030088BF92
:1010A000C81738BF6FEAE17018BF40F00100704701
:1010B0007FEA226C02D15FEA402C05D17FEA236CE3
:1010C000E4D15FEA412CE1D05DF8040B704700BF2A
:1010D000844608466146FFE70FB5FFF7C9FF0028C1
:1010E00048BF10F1000F0FBD4DF808EDFFF7F4FFFA
:1010F0000CBF012000205DF808FB00BF4DF808ED93
:10110000FFF7EAFF34BF012000205DF808FB00BFB5
:101110004DF808EDFFF7E0FF94BF012000205DF8D7
:1011200008FB00BF4DF808EDFFF7D2FF94BF012088
:1011300000205DF808FB00BF4DF808EDFFF7C8FF81
:1011400034BF012000205DF808FB00BF0000000054
:101150004FEA4002B2F1FE4F0FD34FF09E03B3EBC4
:1011600012620DD94FEA002343F0004310F0004F04
:1011700023FA02F018BF404270474FF0000070475A
:1011800012F1610F01D1420205D110F0004008BFF9
:101190006FF0004070474FF0000070470000000003
:1011A00000210A2200F0FCB900220A2300F048B90D
:1011B000032AC9B270B407D822B10023C154013345
:1011C0009342FBD170BC704785070244034603D0AD
:1011D00003F8011B9C07FBD10C02D51A64182604E6
:1011E0003F2D34441ADD1C605C609C60DC601C6137
:1011F0005C619C61DC611C625C629C62DC621C6301
:101200005C639C63DC634033D51A3F2DEBDC05E067
:101210001C605C609C60DC601033D51A0F2DF7DC1D
:1012200002E043F8044BD51A032DFADC9342C9D2ED
:1012300003F8011B9342FBD1C4E700BF000000008C
:1012400040F60003C2F2000370B41D6810F8013BC1
:10125000EC181A46647804F00304012C11F8014BD1
:1012600008BF03F120022E192346767806F0030604
:10127000012E08BF04F12003D21A01D1002BE5D1C1
:10128000104670BC704700BF000000000000000066
:10129000C9B2F0B4002946D0820710D00378002BE1
:1012A0006CD0994218BF024606D13AE012F8013FCD
:1012B000002B63D0994234D001308307F6D1036804
:1012C00041EA0127A3F1013247EA074722EA030274
:1012D00012F0803F1CD17B40A3F1013222EA0303CC
:1012E00013F0803F14D1044602E012F0803F0FD18A
:1012F00054F8043F0430A3F1013687EA030226EADA
:101300000303A2F1013513F0803F25EA0202ECD07D
:10131000037823B932E043780130002B2ED0994274
:10132000F9D1F0BC704783070AD00378024623B98D
:10133000F7E712F8013F002BF3D001308107F8D115
:1013400003680246A3F1013121EA030313F0803F51
:101350000AD1014651F8043F0432A3F1013020EADA
:10136000030313F0803FF5D013781046002BD8D03C
:1013700012F8013F0130002BFAD1D2E71846D0E72E
:1013800041EA000313F0030F034670B414BF0024B6
:101390000124032A94BF002404F001040D46C4B9BB
:1013A000AAB10C78013A03F8014B4CB11C4672B15A
:1013B00011F8016F013A04F8016B2346002EF6D1B3
:1013C0002AB19A18002103F8011B9342FBD170BC8B
:1013D0007047294655F8044BA4F1013626EA040665
:1013E00016F0803FDCD1043A43F8044B032AF0D8CE
:1013F0002946D5E7000000000000000000000000C2
:10140000F0B40478CCB10E780746A6B10546B442D4
:1014100018BF0A4602D108E09C4206D012F8013FEC
:10142000002BF9D1281AF0BC704717F8014F01358D
:10143000002CECD1F6E73046F5E72046F3E700BF95
:101440002DE9F04F40F60004C2F2000485B01F46BB
:101450008C4626680B46039002921A4601331D46BD
:101460001478311991F801B01BF0080BF5D12D2C2F
:1014700073D02B2C04BF5478951CD7F1010338BFCF
:101480000023102F14BF1A4643F001023AB1302C4A
:1014900073D023B10827302CB94601D00A27B946AA
:1014A000BBF1000F49460CBF6FF0004A4FF0004AF5
:1014B000CDF804C0504600F0B1F950468846494680
:1014C00000F07EF833190022DDF804C05B78114685
:1014D00013F0040F1ED0303CA74225DD814294BF9B
:1014E0000023012353EAD2722DD10A1A534243EB4F
:1014F00002034445D4BF002303F00103002B22D193
:1015000009FB014115F8014B012233195B7813F0F7
:10151000040FE0D113F0030306D0012B14BF5723AF
:101520003723E41AA742D9DC531C1BD00846BBF171
:10153000000F10D1029B1BB152B90299C1F800C033
:1015400005B0BDE8F08F4FF0FF3215F8014BDCE736
:1015500005F1FF3CF1E74842ECE75478951C4FF069
:10156000010B8AE70399BBF1000F0CBF6FF000403D
:101570004FF0004022230B60DCE72A78A2F17800CC
:10158000414241EB0001582A14BF0A4641F00102D2
:10159000002A3FF47EAF10276C78B94602357FE70A
:1015A00030B440F60404C2F200040D46134601466E
:1015B0002A46206830BCFFF743BF00BF0000000090
:1015C0004A1E08BF7047C0F02481884240F216814D
:1015D000114200F01781B0FA80F3B1FA81F2A2EB68
:1015E0000303C3F11F0304A202EB03134FF0000235
:1015F0009F4600BFAFF30080B0EBC17F00BF42EB5E
:10160000020228BFA0EBC170B0EB817F00BF42EBAC
:10161000020228BFA0EB8170B0EB417F00BF42EB1C
:10162000020228BFA0EB4170B0EB017F00BF42EB8C
:10163000020228BFA0EB0170B0EBC16F00BF42EB0C
:10164000020228BFA0EBC160B0EB816F00BF42EB8C
:10165000020228BFA0EB8160B0EB416F00BF42EBFC
:10166000020228BFA0EB4160B0EB016F00BF42EB6C
:10167000020228BFA0EB0160B0EBC15F00BF42EBEC
:10168000020228BFA0EBC150B0EB815F00BF42EB6C
:10169000020228BFA0EB8150B0EB415F00BF42EBDC
:1016A000020228BFA0EB4150B0EB015F00BF42EB4C
:1016B000020228BFA0EB0150B0EBC14F00BF42EBCC
:1016C000020228BFA0EBC140B0EB814F00BF42EB4C
:1016D000020228BFA0EB8140B0EB414F00BF42EBBC
:1016E000020228BFA0EB4140B0EB014F00BF42EB2C
:1016F000020228BFA0EB0140B0EBC13F00BF42EBAC
:10170000020228BFA0EBC130B0EB813F00BF42EB2B
:10171000020228BFA0EB8130B0EB413F00BF42EB9B
:10172000020228BFA0EB4130B0EB013F00BF42EB0B
:10173000020228BFA0EB0130B0EBC12F00BF42EB8B
:10174000020228BFA0EBC120B0EB812F00BF42EB0B
:10175000020228BFA0EB8120B0EB412F00BF42EB7B
:10176000020228BFA0EB4120B0EB012F00BF42EBEB
:10177000020228BFA0EB0120B0EBC11F00BF42EB6B
:10178000020228BFA0EBC110B0EB811F00BF42EBEB
:10179000020228BFA0EB8110B0EB411F00BF42EB5B
:1017A000020228BFA0EB4110B0EB011F00BF42EBCB
:1017B000020228BFA0EB0110B0EBC10F00BF42EB4B
:1017C000020228BFA0EBC100B0EB810F00BF42EBCB
:1017D000020228BFA0EB8100B0EB410F00BF42EB3B
:1017E000020228BFA0EB4100B0EB010F00BF42EBAB
:1017F000020228BFA0EB0100104670470CBF012079
:1018000000207047B1FA81F2C2F11F0220FA02F003
:10181000704708B14FF0FF3000F012B80029F8D03F
:101820002DE90340FFF7CCFEBDE8064002FB00F3C4
:10183000A1EB0301704700BF0000000000000000A2
:10184000704700BF00000000000000000000000022
:10185000704700BFAFF30080AFF30080AFF30080AC
:10186000FEE700BFAFF30080AFF30080AFF300806E
:1018700072B640F60001C2F2000181F3098802232A
:1018800083F31488BFF36F8F40F2000240F20044EC
:10189000C2F20002C2F20004A24217D213464FF075
:1018A0005530D64343F8040BA519A342C5F3800570
:1018B0000CD225B1186002F10803A34206D21A46E1
:1018C00042F8040B5860131DA342F8D340F20042C3
:1018D000C2F200028A4217D213464FF05530D54368
:1018E00043F8040B4C198B42C4F380040CD224B18E
:1018F000186002F108038B4206D21E4646F8040B1C
:101900005860331D8B42F8D303F0CAF840F6804488
:1019100040F60001C2F20001C2F20004A14225D249
:101920004CF66810C0F60000024652F8046B0B46F5
:10193000CD4343F8046B04EB050CA342CCF38005C4
:1019400014D23DB1166800F108021E6001F10803CF
:10195000A3420BD2114651F8046B1846526840F866
:10196000046B5A60031D0A1DA342F3D340F6804264
:1019700042F6AC30C2F20002C2F20000824217D23C
:1019800000211346D44343F8041B00EB040E8342AA
:10199000CEF380040CD224B1196002F10803834213
:1019A00006D21D4645F8041B59602B1D8342F8D30F
:1019B00040F2301540F23016C0F60005C0F60006C1
:1019C000FFF746FFB54219D22C4654F8043BE943D1
:1019D00077189847B442C7F380070FD22FB1236816
:1019E00005F108049847B44208D2254655F8042B5F
:1019F000904760682C1D8047B442F6D340F2301502
:101A000040F23016C0F60005C0F60006FEF790FB67
:101A1000B5421AD22C46EF4354F8043B06EB070CB0
:101A2000CCF380079847B4420FD22FB1226805F15A
:101A300008049047B44208D2254655F8040B804765
:101A400061682C1D8847B442F6D3FFF709FF00BF39
:101A5000FEE700BFAFF30080AFF30080AFF300807C
:101A600072B6FEE7AFF30080AFF30080AFF3008003
:101A700000F0C6FA00DF00BFAFF30080AFF30080D4
:101A8000EFF30983203383F30988002383F311885C
:101A9000704700BFAFF30080AFF30080AFF300806A
:101AA00008B54FF440724FF46D43CEF20003C0F21C
:101AB000FA520021996007201021DA6000F0B8F88E
:101AC0000A20202100F0B4F80B208021BDE8084056
:101AD00000F0AEB8AFF30080AFF30080AFF300804A
:101AE000202383F311884FF46D40CEF20000436849
:101AF00013F400631FD0EFF30982A2F1200181F3F8
:101B0000098840F69853C2F2000399694FF080703B
:101B100042F8040CC87F88B118688B6880689842C6
:101B200094BF0023012393B141F67123C0F6000353
:101B300042F8083C704783F31188704718688B6837
:101B40008168994234BF00230123002BECD141F678
:101B50007421C0F6000142F8081C7047AFF3008002
:101B600008B5202383F3118800F0CAF8002383F31B
:101B70001188BDE80840FFF7B3BF00BFAFF3008096
:101B80002DE9F04FC1F80CD0D0F80CD0BDE8F08FA3
:101B9000002383F311882846A04700F009FB704713
:101BA00000F00302F0B4FF23D60003FA06FC00F0B5
:101BB0001F0401FA06F1012505FA04F586084FF421
:101BC0006144CEF20004C03654F82670400927EA7A
:101BD0000C0242EA010300F1600744F8263044F8A1
:101BE000275044F82050F0BC704700BFAFF300808E
:101BF00010B400F01F01012404FA01F400F0030204
:101C0000D100FF2303FA01FC42094FF46143CEF2F5
:101C100000032032800843F82240C03053F82010DF
:101C200021EA0C0243F8202010BC7047AFF300807B
:101C300000F0030310B4FF22DC0002FA04FC01FAF6
:101C400004F180084FF46D44CEF20004063054F8DD
:101C5000203023EA0C0242EA010344F8203010BC91
:101C6000704700BFAFF30080AFF30080AFF3008098
:101C700040F69850C2F2000082694BF68053C0F6DD
:101C800000039361FEE700BFAFF30080AFF3008075
:101C900030B583B0FFF704FF00F0DAF800F060F829
:101CA00000F0D6FD00F01CFE40F680404021C2F25C
:101CB000000000F0B5F940F69854C2F20004A061AB
:101CC00001220277002383F3118862B64BF690510C
:101CD000A569C0F600011C4640F6C84041F67143B4
:101CE000A961C0F60003C021C2F20000009400F018
:101CF000F7F903B030BD00BFAFF30080AFF3008051
:101D000038B540F69853C2F200039B69DA7F0AB1F6
:101D1000013ADA771A6A40F68854511CC2F200047C
:101D20001962E3682168581CA142E06014D08D68F4
:101D3000013D8D6085B90B68CA685C602360CD6029
:101D4000002383F3118808699047202383F31188C7
:101D5000216888680028EED038BD00BFAFF300804E
:101D600040F68853C2F200034FF0FF3000225B6060
:101D70001B609860DA607047AFF30080AFF30080BB
:101D800070B440F68855C2F200052C680361A6685D
:101D9000C260B14204D92468891BA6688E42FAD376
:101DA00063688160AC4243600460186018BFA36838
:101DB00060601CBFC1EB0301A16070BC704700BF35
:101DC000036840F68852C2F2000293421FBF99682E
:101DD00082688A189A604268002113600368C160B3
:101DE0005A607047AFF30080AFF30080AFF300801C
:101DF000202383F31188037F0D2B11D8DFE803F034
:101E000023101007100B101010101010100B416A47
:101E10008B685A1C8A6090E80C001A600268536054
:101E20004FF0FF3240F698534262816800220277F9
:101E3000C2F200031B689A688A42FBD259680360A9
:101E4000416008605860002383F31188704700BF29
:101E500040F69853C2F2000300225B601B609A6058
:101E60005B611B61704700BFAFF30080AFF3008080
:101E700040F69853002281680277C2F200031B6883
:101E80009A688A42FBD259680360416008605860D2
:101E9000704700BFAFF30080AFF30080AFF3008066
:101EA00040F69853C2F2000310B499691A68087793
:101EB00014201468C87701201077104663601C60F6
:101EC0009A6110BCFFF75CBEAFF30080AFF30080F7
:101ED00030B54B1C87B0054617D040F69854C2F277
:101EE000000441F6F152A369C0F6000201A8FFF711
:101EF00047FF2846FFF7D4FF049B13B101A8FFF763
:101F00005FFFA069406A07B030BD40F69854FFF704
:101F1000C7FFC2F20004F4E7AFF30080AFF3008024
:101F200040F69852C2F2000230B4946903468568C4
:101F3000A06859620021854284BF217711460BD8E1
:101F40001977126891688D42FBD950681A60586001
:101F50000360536030BC704709688D68A842FBD9A4
:101F60004868216060604C60012104601977184660
:101F70002146936130BCFFF703BE00BFAFF3008082
:101F800040F69853C2F2000318689969026830B4A9
:101F900053601A608C68012598611422002305772C
:101FA000CA770B77034600E01B689A68A242FBD20F
:101FB0005A680B604A601160596030BCFFF7E0BDA1
:101FC00040F69853C2F2000318689969026830B469
:101FD00053608C6801251A609861002305770B77A0
:101FE000034600E01B689A68A242FBD85A680B605F
:101FF0004A601160596030BCFFF7C2BDAFF300808A
:1020000040F69851C2F200018869C37F0BB1FFF717
:10201000D7BFFFF7B5BF00BFAFF30080AFF30080BD
:10202000F0B440F69854C2F20004656900220461DD
:1020300000F12C06816000F12807456102236061F0
:1020400001641424012103774277C477C263826359
:10205000026281778261286187620663C662F0BC92
:10206000704700BFAFF30080AFF30080AFF3008094
:102070002DE9F007A1F1240C40F69855C2F20005B5
:1020800000EB0C07D5F81490C76040F80C30079BA4
:1020900041F691317B60C0F60001022339620026CF
:1020A000904600F1280A00F12C0203771421012345
:1020B0000561C0F80880C0F8149046776861C17760
:1020C000C0F84080C6638663066283778661C9F87C
:1020D0001000C0F828A00263C262BDE8F007704794
:1020E00010B59C4682B0202383F31188049C63467C
:1020F0000094FFF7BDFF00210446FFF711FF002306
:1021000083F31188204602B010BD00BFAFF30080FA
:1021100008B50146202383F311880620FFF7D8FE77
:10212000002383F3118808BDAFF30080AFF3008074
:1021300008B5202383F3118840F68853C2F20003C8
:10214000D968411A02D00620FFF7C2FE002383F3AC
:10215000118808BDAFF30080AFF30080AFF30080BB
:1021600038B540F69853C2F200039C69254655F8ED
:10217000283F6062AB4207D01A681846A262FFF798
:1021800077FEA36AAB42F7D1617F880701BF22695E
:1021900060690261226908BF50610E20BDE83840C5
:1021A000FFF77EBEAFF30080AFF30080AFF3008097
:1021B000202383F31188FFF7D3BF00BFAFF3008064
:1021C00038B50446202383F31188037F0E2B0AD0F1
:1021D00040F69855C2F20005826AA96907200A6094
:1021E000A162FFF75DFE656A002383F31188204634
:1021F00000F006F8284638BDAFF30080AFF300804A
:102200000146202383F31188827F0023013AD2B252
:10221000827783F3118812B9037F0E2B00D07047A9
:10222000427F02F00303012B09D0022BF7D143694F
:102230000269406C1A610A69536100F021BC43696C
:1022400002691A6101694B6100F0A2BBAFF3008023
:1022500070B582B00C4615461E4600F051FBA8B181
:10226000202383F311882146069C33462A46009496
:10227000FFF7FEFE0123437700210446FFF750FEDF
:10228000002383F31188204602B070BD0446FAE7AC
:10229000202383F3118840F69853C2F20003186993
:1022A0000023817F4A1C827783F31188704700BF27
:1022B00010B5202383F3118840F698530469C2F2C5
:1022C00000039C4209D0A27F511CA177002383F315
:1022D0001188FFF795FF204610BD0024F6E700BFE8
:1022E0000023406000608360704700BFAFF3008050
:1022F000F8B540F698528368C2F200020546946928
:10230000002B51D0A1689868814206D91A7F996044
:10231000042A31D0052A1CD092B12B461B689D425D
:1023200003D09868A2689042F8D2596804202360CC
:1023300061600C605C606562BDE8F840FFF7B0BDAD
:1023400093E80600116018461B685A60FFF790FD7D
:10235000E3E758681F685E6A07601F683246786066
:102360001268964202D090688842F9D251681A6089
:1023700059600B605360D0E758681F685E6A076059
:102380001F68324678601268964212D09068884280
:10239000F9D251681A6059600B605360B368A16844
:1023A0009A688A42B2D3B8E7E36B8460C360E063A3
:1023B000F8BD3246EDE700BFAFF30080AFF3008019
:1023C00008B5202383F31188FFF792FF002383F3DE
:1023D000118808BDAFF30080AFF30080AFF3008039
:1023E000F8B540F69853C2F200039A69202383F3AC
:1023F0001188D46B2368E168A342D1631CD0176CA9
:1024000049B10868884203D08068874238BF0746D0
:10241000C9680029F5D11D68DE6B976018462560F4
:1024200000216C60A360E660DC63FFF779FD0023A8
:1024300083F311882046F8BD0021A160002383F3B7
:1024400011882046F8BD00BFAFF30080AFF30080D5
:1024500070B4202383F3118840F69853C2F200032E
:102460009D69066800240E60234601604D608A6005
:10247000CC6083F3118870BC704700BFAFF300805D
:10248000202383F31188024602E0994207D01A46BE
:1024900013688342F9D1002383F3118870470B68D6
:1024A0001360002383F31188704700BFAFF30080EF
:1024B00008B5826B037F0A43082B82630CD0092B7B
:1024C00000D008BD436A02EA03018B42F9D1FFF74D
:1024D000CFFC0022426208BD436A1A42F7D108BD10
:1024E00070B504680546A0420E460AD0E1686068EF
:1024F00041EA0603E360A168FFF7DAFF2468A5421A
:10250000F4D170BDAFF30080AFF30080AFF3008073
:1025100040F69853C2F2000370B59E69044620232A
:1025200083F31188B36B10EA03050ED121B92B4652
:1025300083F31188284670BD70620820FFF7C8FC3D
:102540000028F4DBB36B04EA030523EA0500B0635B
:10255000002383F31188284670BD00BFAFF30080CD
:1025600010B4024671B140F69850C2F2000083697F
:102570000D205A62546883E814005360236010BC35
:10258000FFF7A6BC4FF0FF3010BC7047AFF30080E0
:1025900010B4C361019B8A1800244060006084600D
:1025A00041618161C1600261036210BC704700BF7C
:1025B00038B5C168044600680023A0426161A1618A
:1025C000A3600AD06FF00105026822605460FFF733
:1025D0004FFC456220688442F6D138BDAFF30080DD
:1025E000426908B503468069824298681AD0013072
:1025F000986002F8011B18695A6182420BD2186870
:1026000098420DD0016819604B60FFF731FC002340
:102610004362184608BD1868DA6898425A61F1D1D9
:10262000002008BD0028E2D06FF0030008BD00BF05
:1026300070B5202304460D4683F31188C36903B1A6
:102640009847A668204629463EB9FFF789FF00282B
:10265000F7DA334683F3118870BDA369013EA660A3
:1026600013F8010B2269A361934224BFE368A361BD
:10267000002383F3118870BDAFF30080AFF30080B7
:102680002DE9F0471D4604460E469146D0F81C80C1
:10269000202383F311880027B8F1000F01D02046D2
:1026A000C047D4F808A020462946BAF1000F09D146
:1026B000FFF756FF0028F4D0534683F311883846BD
:1026C000BDE8F087A3690AF1FF31A16013F8010B9F
:1026D000F0552269A361934224BFE368A3610023FC
:1026E00083F3118801374F45E9D0202383F3118804
:1026F000D2E700BFAFF30080AFF30080AFF30080FC
:1027000010B4C361019B8C1840600060826041611D
:102710008161C1600461036210BC7047AFF3008047
:10272000F8B504460D461646202383F31188A768A2
:10273000204631463FB9FFF713FF0028F7DA3B4642
:1027400083F31188F8BD6369013FA76003F8015B5B
:1027500022696361934224BFE3686361E3690BB15B
:1027600020469847002383F311881846F8BD00BF20
:102770004169826910B591420346816816D04C1CAC
:102780009C6012F8014B18699A6182420BD218685A
:10279000984206D0016819604B60FFF769FB00237F
:1027A0004362204610BDDA689A61F0E70029E6D05E
:1027B0006FF0020010BD00BFAFF30080AFF30080E8
:1027C0002DE9F0471E4604460D461746D0F81C90EA
:1027D000202383F311884FF00008D4F808A0204686
:1027E0000AF1FF33BAF1000F21D0A36029786369A1
:1027F00003F8011B22696361934224BFE3686361AC
:10280000B9F1000F00D0C847002383F31188013FBE
:1028100008F1010814D00135202383F31188D4F87E
:1028200008A020460AF1FF33BAF1000FDDD120469F
:102830003146FFF795FE0028CFD0534683F3118829
:102840004046BDE8F08700BFAFF30080AFF30080E3
:10285000094940F2000C40F6B85240F6B453C2F2B7
:10286000010C21F00700C2F20002C2F200032CF0BA
:102870000701106019607047B32B0020AFF3008090
:10288000202383F3118840F6B85340F6B45CC2F2BB
:102890000003C2F2000C1A68DCF80010073020F0C8
:1028A0000700891A88429ABF101818600022002376
:1028B00083F3118810467047AFF30080AFF30080B8
:1028C00040F6B45240F6B851C2F20002C2F2000122
:1028D00010680B68C01A7047AFF30080AFF3008038
:1028E00040F6C053C2F2000342F681020021C0F656
:1028F000000203F110001A609960D960FFF7F0BC84
:10290000F8B540F6C054C2F20004002818BF0446CF
:10291000073104F1100021F0070604F10805FFF764
:102920004FFD00E01D462B6803B35A689642F9D864
:1029300006F108018A4216D34FF6F877CFF6FF77F3
:10294000D3F800E0C6EB070C0CEB02005F1843F86D
:1029500001E078602F605E601D4645F8084BFFF788
:102960003FFD2846F8BD1A682A60F5E7FFF738FDF5
:102970002568002DF5D006F10800A8470546002877
:10298000EFD000F1080580E850002846F8BD00BFF0
:1029900070B5064650F8080CA6F1080400F10805C9
:1029A0001030FFF70DFD2B46591B484240EB01024A
:1029B0009C4288BF42F0010272B11A6872B194421F
:1029C0000CD31346591B484240EB01029C4288BF7E
:1029D00042F00102002AF0D11B68E5E756F8041C1A
:1029E00046F8082C1C6001F1080256F8085CA01893
:1029F000A8420AD05A6802F1080E03EB0E0C644597
:102A000012D0BDE87040FFF7EBBC4068A258081830
:102A1000083046F8040C46F8082C5A6802F1080EF3
:102A200003EB0E0C6445ECD156F8040C56F8081C68
:102A30001218083283E80600E3E700BFAFF3008016
:102A400038B540F6C054C2F20004002818BF04464E
:102A500004F110000D46FFF7B3FCA3681A461C46AC
:102A60003BB10022144659681B6852180134002BF0
:102A7000F9D105B12A60FFF7B3FC204638BD00BF8D
:102A8000202383F31188026800230A60016083F326
:102A900011887047AFF30080AFF30080AFF3008080
:102AA00008B500F045FC00F00BFA4BF69060C0F65C
:102AB000000001F065F800F013F800F049F800F0AC
:102AC00077F800F0ADF800F053F900F0B1F9BDE887
:102AD000084001F0EDBF00BFAFF30080AFF300800E
:102AE00000F04EBDAFF30080AFF30080AFF3008085
:102AF00000230122027043608360C360036143616D
:102B00001830FFF7EDBB00BFAFF30080AFF30080DC
:102B100010B52023044683F31188416000F078FD4E
:102B200002232370002383F3118810BDAFF30080CC
:102B300038B51D46202383F3118803230370826078
:102B4000C560016100F094FD002383F3118838BD56
:102B500000F056BFAFF30080AFF30080AFF300800A
:102B60000121002301704360704700BFAFF3008074
:102B700010B52023044683F31188416000F0C0FFA4
:102B800002232370002383F3118810BDAFF300806C
:102B900008B5202383F3118800F03AFF002383F364
:102BA000118808BDAFF30080AFF30080AFF3008061
:102BB00001F046BDAFF30080AFF30080AFF30080BB
:102BC0000121002301704360704700BFAFF3008014
:102BD00010B52023044683F31188416001F058FDAD
:102BE00002232370002383F3118810BDAFF300800C
:102BF00008B5202383F311880423037001F0B8FD86
:102C0000002383F3118808BDAFF30080AFF3008089
:102C10000423037001F0ACBDAFF30080AFF300807C
:102C200001F05EBAAFF30080AFF30080AFF3008035
:102C300001210023017043600C30FFF751BB00BF3E
:102C400010B52023044683F31188416001F060FA37
:102C500002232370002383F3118810BDAFF300809B
:102C600010B52023044683F3118801F019FB0123DA
:102C70002370002383F3118810BD00BFAFF30080E1
:102C800080687047AFF30080AFF30080AFF300803F
:102C900070B59C4684B00446202383F31188032634
:102CA0000670089E002585600096099E6346019681
:102CB0000A9E029601F01CFBB0F1FF3F0CBF0523FA
:102CC000022323702B4683F3118804B070BD00BF2C
:102CD0000C30FFF775BB00BFAFF30080AFF300808F
:102CE000FFF77EBBAFF30080AFF30080AFF300804F
:102CF0000C30FFF7C5BC00BFAFF30080AFF300801E
:102D00000C304FF0FF33FFF7BBBC00BFAFF30080C8
:102D10003030FFF755BD00BFAFF30080AFF3008048
:102D200030304FF0FF33FFF74BBD00BFAFF30080F3
:102D30000C30FFF77DBC00BFAFF30080AFF3008025
:102D40000C304FF0FF31FFF773BC00BFAFF30080D2
:102D50003030FFF7E5BC00BFAFF30080AFF3008079
:102D600030304FF0FF32FFF7DBBC00BFAFF3008025
:102D700001F0E6BDAFF30080AFF30080AFF3008059
:102D800070B504464BF6B0502646C0F6000046F833
:102D9000040B6660012682B00B46154604F10C0058
:102DA00004F15401402226720094FFF7F1FB04F174
:102DB000300004F1940140222B460094FFF7A0FC60
:102DC00002B070BDAFF30080AFF30080AFF30080BE
:102DD00010B52023044683F3118801F0E9FD022396
:102DE0002372002383F3118810BD00BFAFF300806E
:102DF00038B5436904460D463BB104F10C00294641
:102E0000FFF7EEFB00280BDB38BD04300421FFF791
:102E100067FB04F10C002946FFF7E2FB0028F3DA18
:102E2000201D8021BDE83840FFF75ABBAFF300807A
:102E300001F026BBAFF30080AFF30080AFF300805A
:102E4000002301220270436083600C30FFF748BA10
:102E500010B52023044683F31188416001F038FB4C
:102E600002232370002383F3118810BDAFF3008089
:102E70004FF48051CEF200014B688360704700BF71
:102E800010B44FF48054CEF2000440F6E05C646865
:102E90008368C2F2000CDCF80010C268E31A5B1A07
:102EA0009342836088BFC36003D80269934238BFEE
:102EB000036110BC704700BFAFF30080AFF3008028
:102EC00010B542F6816286B0C0F6000240F6E054CA
:102ED00042F671610023C0F60001C2F2000401A8AD
:102EE00002924FF0FF322360039304930191059205
:102EF000FFF7BEFF01A802998847039B236006B035
:102F000010BD00BFAFF30080AFF30080AFF30080CF
:102F10000020C4F2020040F6E4520168C2F200024E
:102F200008B5136801F00F0141600BB15068984774
:102F3000BDE80840FEF7D4BDAFF30080AFF30080DA
:102F40000020C4F20200016840F6E452C2F200021E
:102F5000C1F30311936810B50C0144600BB1D06844
:102F60009847BDE81040FEF7BBBD00BFAFF300803F
:102F70000020C4F20200016840F6E452C2F20002EE
:102F8000C1F30321136910B50C0244600BB1506901
:102F90009847BDE81040FEF7A3BD00BFAFF3008027
:102FA0000020C4F20200016840F6E452C2F20002BE
:102FB000C1F30331936910B50C0344600BB1D069C0
:102FC0009847BDE81040FEF78BBD00BFAFF300800F
:102FD0000020C4F20200016840F6E452C2F200028E
:102FE000C1F30341136A10B50C0444600BB1506A7D
:102FF0009847BDE81040FEF773BD00BFAFF30080F7
:103000000020C4F20200016840F6E452C2F200025D
:10301000C1F30351936A10B50C0544600BB1D06A3B
:103020009847BDE81040FEF75BBD00BFAFF30080DE
:103030000020C4F20200016840F6E452C2F200022D
:10304000C1F30361136B10B50C0644600BB1506BF8
:103050009847BDE81040FEF743BD00BFAFF30080C6
:103060004FF48060C4F2020040F6E4520168C2F2FC
:10307000000208B5936B01F00F0141600BB1D06BFA
:103080009847BDE80840FEF72BBD00BFAFF30080B6
:103090004FF48060C4F20200016840F6E452C2F2CC
:1030A0000002C1F30311136C10B50C0144600BB1A5
:1030B000506C9847BDE81040FEF712BDAFF300809A
:1030C0004FF48060C4F20200016840F6E452C2F29C
:1030D0000002C1F30321936C10B50C0244600BB1E4
:1030E000D06C9847BDE81040FEF7FABCAFF3008003
:1030F0004FF48062C4F20202116810B5C1F30331CB
:1031000049B140F6E450C2F20000036D0C03546074
:103110000BB1406D98474FF48062C4F20202106810
:10312000C0F3034149B140F6E450C2F20000836DA0
:103130000C0454600BB1C06D9847BDE81040FEF719
:10314000CFBC00BFAFF30080AFF30080AFF30080CF
:103150002DE9F00F40F6446186B0C2F200014FF451
:1031600086620391C4F2020240F244410292C4F228
:10317000020100220191C4F202024FF48061049224
:10318000C4F20201039A4FF0080A40F6E4534FF0EC
:103190001C094FF030084FF0440C58276C2680254E
:1031A0004FF4816440F21C400591C2F200030021FB
:1031B000C4F20200C4F2020AC4F20209C4F2020814
:1031C000C4F2020CC4F20207C4F20206C4F2020501
:1031D000C4F2020411604FF48B6BCAF80010029A1B
:1031E0001960C9F800109960C8F800101961CCF88E
:1031F0000010996139601962316099622960196320
:103200002160996301600198C4F2020B1964116096
:10321000996401601965CBF8001099650499059AC5
:103220004FF0FF334B60536006B0BDE8F00F7047BE
:103230002DE9F041457A4FF0010C0CFA05F740F604
:103240004464C2F200042668374238D140F6E45C98
:103250003E43C2F2000C4CF835200CEBC508750655
:1032600018BF4FF4805526601CBFC4F202056C697C
:10327000C8F804301CBF44F001046C6116F4786F88
:103280001EBF4FF48055C4F202056C6903681CBF71
:1032900044F002046C611F68456827F00F041C604D
:1032A000067A0F2707FA06F600242E601C604AB142
:1032B000807A0901FEF774FC2046BDE8F081604683
:1032C000BDE8F0811046BDE8F08100BFAFF300809B
:1032D00010B50446807AFEF78BFC94F809C00121F2
:1032E00001FA0CF040F64463C2F200031A6822EAC5
:1032F000000251061A6001BF4FF48053C4F202036A
:10330000596921F0010108BF596112F4786F01BFBA
:103310004FF48053C4F202035A6922F0020208BF3C
:103320005A6110BDAFF30080AFF30080AFF30080AF
:103330004FF4805C70B4C4F2020C00214FF0FF35F2
:103340004EF2100241F63F14DCF81000CEF20002FB
:10335000CCF81050C0F20104CCF81010DCF80C606E
:103360004EF6F053CCF80C50CCF80C105460916031
:1033700007211160CEF20003D8684FF4805140F06D
:103380008072DA60CEF2000108684FF4E04240F04B
:1033900001030B60DCF81C10C4F2000241F0805005
:1033A000CCF81C00DCF81C3043F00061CCF81C1099
:1033B000106840F48073136070BCFFF7C9BE00BF93
:1033C0004FF48053C4F202031868194640F001021A
:1033D0001A600A684FF480539207C4F20203F8D5CA
:1033E0001A68002002F0F90119601946586048680F
:1033F0004FF4805310F00C0FC4F20203F7D1186899
:10340000194640F480321A600A684FF480539003E2
:10341000C4F20203F8D55A68194642F4E81058601D
:103420001A6842F08070186008684FF48053820177
:10343000C4F20203F8D54FF444424FF4005CC0F2EA
:103440001D021221C4F2020C5A60CCF80010586818
:103450001A4640F002015960506800F00C03082B36
:10346000FAD17047AFF30080AFF30080AFF3008074
:10347000F8B50B07044629D5C36A016993E824000F
:10348000166826F00F0616601B7A0F2606FA03F65A
:10349000826A8B6800212E6091602BB10522027038
:1034A00098472078052859D000222261202383F3F1
:1034B0001188636933B162614FF0FF3218465A6276
:1034C000FEF7D6FC002383F31188F8BD8A072CD5BC
:1034D00001690D78002D32D1C36A866A93E88400B1
:1034E000D2F800C02CF00F0CC2F800C093F808C04E
:1034F0004B680F2101FA0CF23A60B560002B30D016
:10350000042202708168C2689847207804282FD06E
:10351000202383F311886369002BD3D000216161DC
:1035200018465962FEF7A4FCCCE74B0706D50369A1
:103530005B681BB1C268816852089847F8BD4B6848
:10354000002BFBD0C268012A0FD94D88520805FB19
:1035500002F5816801EB45019847F8BD0221217011
:10356000A2E7022202700361D2E781689847F8BDA2
:10357000022121702561CBE7AFF30080AFF300801B
:1035800010B540F64864C2F200042046FFF7B0FAD6
:1035900042F28A534FF4805C2363C4F2020CDCF8DD
:1035A00018204FF410534BF6D051C4F2010342F4EB
:1035B0000070C0F600010022E162A362CCF818009E
:1035C0005A6001200922986019469A6088684FF471
:1035D00010530207C4F20103F8D40521996019467B
:1035E0008B684FF4105213F00403C4F20102F7D1B8
:1035F0004FF4805E9360C4F2020EDEF8180020F4EF
:103600000072CEF8182010BDAFF30080AFF3008039
:10361000037810B5012B044600D010BD40F6486178
:10362000C2F20001884204D0A36A00215960996067
:1036300010BD43F271420521C0F600022346C06A64
:10364000FFF7F6FDE06A42F24C420168C4F2010263
:103650004FF480508A60C4F20200836943F4007220
:103660008261E1E7AFF30080AFF30080AFF3008049
:103670000369F0B41978026B00292BD1C1685F8807
:10368000C46A07FB01F5866821681C69CE604D603D
:103690000A600F68DE6844F48075826A45F00100B4
:1036A00047F0010746F4807610F4841F0F6008BFCE
:1036B00045F0030056605F699E69DD69196A5B6ABF
:1036C00004439460D7601661D562116353639060C0
:1036D000F0BC7047C16842F02002012988BF42F067
:1036E0000402CCE7AFF30080AFF30080AFF30080BB
:1036F00040F67C60C2F2000042684FF4806CC4F275
:10370000010C012108B5CCF814105368002198472A
:10371000BDE80840FEF7E4B9AFF30080AFF30080E6
:1037200040F67C60C2F2000042684FF4806CC4F244
:10373000010C022108B5CCF81410D3680121984778
:10374000BDE80840FEF7CCB9AFF30080AFF30080CE
:1037500040F67C60C2F2000042684FF4806CC4F214
:10376000010C042108B5CCF81410536902219847C4
:10377000BDE80840FEF7B4B9AFF30080AFF30080B6
:1037800040F67C60C2F2000042684FF4806CC4F2E4
:10379000010C082108B5CCF81410D369032198470F
:1037A000BDE80840FEF79CB9AFF30080AFF300809E
:1037B00040F67C60C2F2000042684FF4806CC4F2B4
:1037C000010C102108B5CCF81410536A0421984755
:1037D000BDE80840FEF784B9AFF30080AFF3008086
:1037E0004FF48063C4F201035A6910B502F478748F
:1037F0005C6193062ED4600623D4210618D4E2051A
:103800000DD4A30507D540F67C60C2F200004168E4
:10381000CA6C09219047BDE81040FEF761B940F637
:103820007C60C2F20000436808215A6C9047E8E7C8
:1038300040F67C60C2F200004168CB6B07219847DC
:10384000DDE740F67C60C2F2000042680621536B5F
:103850009847D2E740F67C60C2F200004168CA6A2D
:1038600005219047C7E700BFAFF30080AFF30080AA
:103870004FF48063C4F201035A6910B5510502F494
:103880007C445C6139D422052ED4E30423D4A00403
:1038900018D461040DD4220407D540F67C60C2F22E
:1038A000000042680F21D36F9847BDE81040FEF733
:1038B00017B940F67C60C2F2000041684A6F0E21E1
:1038C0009047E8E740F67C60C2F2000043680D21B3
:1038D000DA6E9047DDE740F67C60C2F20000416896
:1038E0004B6E0C219847D2E740F67C60C2F2000094
:1038F00042680B21D36D9847C7E740F67C60C2F25F
:10390000000041684A6D0A219047BCE7AFF3008090
:1039100040F67C60C2F2000042684FF4806CC4F252
:10392000010C4FF4803108B5CCF81410D2F8843073
:1039300010219847BDE80840FEF7D2B8AFF30080E9
:1039400040F67C60C2F2000042684FF4806CC4F222
:10395000010C4FF4003108B5CCF81410D2F88C30BB
:1039600011219847BDE80840FEF7BAB8AFF30080D0
:1039700040F67C60C2F2000042684FF4806CC4F2F2
:10398000010C4FF4802108B5CCF81410D2F8943013
:1039900012219847BDE80840FEF7A2B8AFF30080B7
:1039A00008B506206021FEF7FBF807206021FEF72E
:1039B000F7F808206021FEF7F3F809206021FEF7F0
:1039C000EFF80A206021FEF7EBF817206021FEF7E0
:1039D000E7F828206021FEF7E3F801206021FEF7D8
:1039E000DFF829206021FEF7DBF82A206021BDE8FE
:1039F0000840FEF7D5B800BFAFF30080AFF30080FA
:103A000040F67C60C2F20000FFF7AAB8AFF3008076
:103A10004368012000FA01F070B44FF4806553F858
:103A20003120C4F20105AE68C44312F0010F14BF87
:103A3000064326404FF4806CAE60C4F2010C12F0D5
:103A4000020FDCF80C2003EBC10514BF0243224037
:103A5000CCF80C206A68002A2AD04FF4806CC4F29B
:103A6000010CDCF800502843CCF80000DCF80420FE
:103A70001440CCF804400F2918D853F8310001F055
:103A80000304A3000F2202FA03F2C0F3031C0CFA92
:103A900003F08C080023C4F20103A11C53F8214059
:103AA00024EA020C4CEA000243F8212070BC704763
:103AB0004FF4806CC4F2010CDCF804502843CCF8BD
:103AC0000400DCF800201440CCF80040D3E700BF2D
:103AD000012202FA01F34FF48062C4F2010211687C
:103AE000D843014011605168014051609168014024
:103AF0009160D1680840D06053617047AFF3008097
:103B000038B503780546012B35D06868016811F097
:103B100004012CD028460021FFF77AFF01240FE092
:103B2000FFF776FF6868013450F8341028464B07D9
:103B300016D5214628460134FFF76AFF132C15D00D
:103B40006B68284653F8342021465207E8D4FFF723
:103B5000BFFF6868013450F8341028464B07E8D49A
:103B600021460134FFF7B4FF132CE9D138BD2846B4
:103B7000FFF7AEFFD2E7FFF713FFC6E7AFF3008012
:103B800030B44FF48055C4F20205AB694FF4006CB9
:103B900043F4FE7141F00104AC610268C4F2010C0F
:103BA000CCF80C2083684FF44062CCF804304168B4
:103BB000C4F20102CCF80010C5684FF4805CD560F7
:103BC0004469C4F2010C546003694FF4A0541360BB
:103BD0008169C4F20104CCF80C10056A4FF4C0519D
:103BE000CCF80450C269C4F20101CCF80020436A49
:103BF0004FF4E05CE360C56AC4F2010C6560856A5D
:103C00004FF400532560026BC4F20103CA60846B59
:103C10004C60446B0C60C16BCCF80C10426CCCF85F
:103C20000420016CCCF80010826CDA60016D5960E0
:103C3000C26C1A6030BC7047AFF30080AFF30080F5
:103C4000032AF0B408BF016102D0042A08BF416111
:103C50004BF66067C0F6000717F802C00F2611F098
:103C600080071CBF674600260F2511F400421CBFC9
:103C7000624600254B00340139012E01150113F075
:103C8000800F0CBF44F00F0441EA0C0113F4004F05
:103C900014BF45EA0C0546F00F065A003601230111
:103CA00009012D0112F0800F0CBF43F00F0341EA10
:103CB0000C0112F4004F0CBF46F00F0645EA0C054C
:103CC00052001C01090133012D0112F0800F14BFB5
:103CD00041EA0C0144F00F0412F4004F14BF45EA0E
:103CE0000C0543F00F0352001E012D010B012401AE
:103CF00012F0800F14BF43EA0C0344F00F0412F4D7
:103D0000004F14BF45EA0C0546F00F06520019019A
:103D100024012B01360112F0800F14BF41EA0C017F
:103D200044F00F0412F4004F14BF43EA0C0346F0B2
:103D30000F0652001D0124013601090112F0800F07
:103D400014BF41EA0C0144F00F0412F4004F14BFF9
:103D500045EA0C0546F00F0653002401360109011F
:103D60002D0113F0800F0CBF44F00F0441EA0C0149
:103D70001A04426854BF46F00F0645EA0C05164087
:103D80003543456003681C4021430160F0BC704727
:103D9000026B436B30B40021146848F200051D80AB
:103DA00019809980998223680F2123F00F032360E3
:103DB00092F808C0C36A01FA0CF450681A680460EB
:103DC0001468586824F00F0414601B7A01FA03F198
:103DD000016030BC704700BFAFF30080AFF30080DC
:103DE00038B50446202383F31188C5694DB1FFF728
:103DF000CFFF00204FF0FF33E06128466B62FEF7F3
:103E000037F8002383F3118838BD00BFAFF300807B
:103E100038B50B070546446B01D5FDF721FE2B6B2A
:103E20001A685968106820F00F00106093F808C0F5
:103E30000F2303FA0CF20A60A18888B240F40073E1
:103E4000A38038BDAFF30080AFF30080AFF30080F4
:103E50000A0770B50546446B2ED4EA6A2023116820
:103E600050680E6826F00F060E6092F808C00F2109
:103E700001FA0CF20260B4F804C02CF4805108047A
:103E8000020CA280B4F800C02CF480610804020C7B
:103E90002280218888B240F40072228083F3118846
:103EA000EB692BB10022EA6118465A62FDF7E0FF88
:103EB000002383F3118870BDFDF7D2FDCDE700BF6D
:103EC00040F68462C2F2000238B5546B0821208BA0
:103ED000A58AC0F20301ADB245EA004323F07F4357
:103EE0008B4274D011D98221C0F207018B4254D089
:103EF0008420C0F2070083422ED015F00A0F18BFAD
:103F0000238BBDE83840FDF7EBBD0121C0F2030172
:103F10008B424FD00220C0F203008342EDD1A18832
:103F2000D06A21F4007213040068190CA1800268A1
:103F300042F001030360B4F804C01FFA8CF141F4AD
:103F40008052A2804368012BD7D8228822F4806057
:103F500003041B0C2380D0E7D16A0B685968002941
:103F60003AD1B4F804C020232CF400700004000CF3
:103F7000A080B4F800C01FFA8CF040F4007CA4F8D4
:103F800000C083F31188D06918B14162D161FDF797
:103F90006FFF002383F31188AFE7A088126B20F432
:103FA00000710B04180C1168A0800B6843F001032A
:103FB0000B60A2E7138C1A0A0CD003F0010C4CF032
:103FC000F00302F0060143EA0102228295E7138C16
:103FD000C3F34703238290E72088118C83B241F01A
:103FE000010C43F4A060A2F820C0208089E700BF44
:103FF00040F68462C2F20002506BF8B5838A146BFB
:104000009BB203F45F472168FD4385820E680F254C
:1040100026F00F070F60267AD16A05FA06F7666860
:104020000C68376027684E6827F00F07276091F803
:1040300008C0002105FA0CF53560916013F4807119
:1040400001D00121916013F4007F1CBF41F00201F7
:10405000916013F4806F0FD0B0F804C041F00401F8
:104060002CF400742404240C848004881FFA84FC3B
:104070004CF4007404809160180544BF41F00801BD
:104080009160580444BF41F020019160D80444BFBE
:1040900041F010019160180444BF41F0400191606B
:1040A00004D419B9BDE8F840FDF71ABD202383F305
:1040B0001188D06940F68463C2F2000330B16FF01A
:1040C000010100224162DA61FDF7D2FE002383F391
:1040D0001188E7E7AFF30080AFF30080AFF3008013
:1040E00010B540F68464C2F200042046FEF7A0FD3D
:1040F000064B4FF4A842C4F20002A3F10C010020C9
:10410000E0616263E362216310BD00BF18BE000876
:1041100003789A218A22012B70B50446816242629B
:10412000456B68D02B46E16A266B0868316805F15B
:104130001002826048F200068A6000224FF410618B
:104140002E802A80A980B3F804C061682CF03F005B
:104150000604340C48680E7A9C809A8848F2A06C59
:1041600094B2C0F2010C44F0240460459C8024DC2D
:104170004FF4A24C4000C0F2252C9CFBF0F210053D
:104180002522000D1A84988309781888022982B2A2
:1041900002BF42F002014FF6F7720A4006D003292F
:1041A00008BF42F00A0201D001295ED01A80298896
:1041B00088B240F001032B8070BD4FF4D452C0F29E
:1041C000060290424FDC022E5AD0032E01BF00EBB4
:1041D00080004FF4A24200EB8000C0F2252203BF12
:1041E00092FBF0F06FEA80406FEA904048F6FF7073
:1041F0000B221A84C7E740F68466C2F20006B0427A
:1042000090D14FF48056C4F202063269034642F45C
:104210000011002043F651623161C0F600020A210C
:104220003061E06AFFF704F843F61162C0F600025D
:1042300023460A21206BFEF7FBFFF3691F2043F49E
:104240000012F261A021FDF7ABFC2020A021FDF7B8
:10425000A7FCA36A616A43F4805041F48052626211
:10426000A062636B5FE700208DE722F00A02110471
:104270000A0C1A80298888B240F001032B8070BD97
:104280004FF4A242C0F2252200EB400C92FBFCF05E
:104290006FEA40426FEA5240AAE700BFAFF30080E6
:1042A000037810B5012B04460DD0FFF771FD206B8C
:1042B000FFF70EF8E06AFFF70BF840F68460C2F2F1
:1042C0000000844200D010BD1F20FDF791FC20208B
:1042D000FDF78EFC4FF48051C4F20201CB6923F448
:1042E0000012CA61EFE700BFAFF30080AFF30080B8
:1042F0002DE9F04387B0109D90466A1C06460F4694
:104300009946446B08D043F6E15201A82946C0F60D
:1043100000023346FDF734FD002383F31188306B30
:10432000F26A01681268706AD6F828C07F00B3602C
:1043300037840F9BC1F800C0C1F80C80C1F804900D
:1043400010600E98D060536002E0002383F3118860
:10435000218B2023880704D4B4F800C05FEA8C5175
:104360000BD583F311886B1CEFD0049B002BECD191
:104370004FF0FF3007B0BDE8F08383F311886A1C6B
:104380001FD0049A002AF3D0A38840F698551FFA4C
:1043900083FC4CF40071A1802088C2F2000582B237
:1043A000AB6942F4807EA4F800E00220F361FDF7DF
:1043B00077FD049911B101A8FDF702FDA869406AD3
:1043C000D8E7A38840F698551FFA83FC4CF4007296
:1043D000A280B4F800E0C2F20005AB691FFA8EF1CA
:1043E00041F4807020800220F361FDF759FDE5E77C
:1043F0000B0700D47047FDF733BB00BFAFF300805D
:104400000A0770B5044633D4626A236A92E8210031
:1044100006680F2126F00F06066092F808C01A6899
:1044200001FA0CF028601568606825F00F0515602A
:104430001D7A5A6801FA05F103681160ABB10422D4
:10444000227020469847217804290ED0202383F338
:104450001188A3682BB10021A16018465962FDF7AD
:1044600007FD002383F3118870BD02232370EDE75D
:10447000FDF7F6FAC8E700BFAFF30080AFF30080A6
:1044800010B540F6C064C2F2000440F6BC6C4FF0B8
:10449000FF31C2F2000C2046ACF80010FEF7D0FC51
:1044A000084B4FF4405203F10C01C4F201022362A5
:1044B00041F20A0041F21803E2616162A062E36224
:1044C00010BD00BFDCBD0008AFF30080AFF300807B
:1044D000037810B5012B044618BFC3691FD060686C
:1044E000A16AB0F80AC0E26A1CF4006F21F470609F
:1044F00022F470611CBF40F4A06041F4A061A0628E
:10450000E1624CF44170002207211A8018809980E2
:104510001A881FFA82FC4CF04000188010BD40F64B
:10452000C063C2F20003984209D0216A626AE3695B
:104530000868116803F10C0282608A60CFE744F2D8
:10454000014203460A21C0F60002006AFEF770FE2F
:1045500044F2F1320A21C0F60002606A2346FEF7F7
:1045600067FE4FF48050C4F20200816941F480522A
:104570008261DAE7AFF30080AFF30080AFF3008031
:10458000426801211089536801FA00F25A617047AC
:10459000426801211089536801FA00F21A617047DC
:1045A000C36999811A89D207FCD5988980B270476E
:1045B000017808B5C368002204291A6107D10221D5
:1045C00001701A601A61D96821F0FF02DA6042684E
:1045D0005368984708BD00BFAFF30080AFF3008079
:1045E00040F6F06008B5C2F20000FFF7E1FFBDE859
:1045F0000840FDF775BA00BFAFF30080AFF300804D
:1046000040F6007008B5C2F20000FFF7D1FFBDE828
:104610000840FDF765BA00BFAFF30080AFF300803C
:1046200040F6107008B5C2F20000FFF7C1FFBDE808
:104630000840FDF755BA00BFAFF30080AFF300802C
:1046400008B54FF4305240F6F06EC2F2000EC4F2DC
:1046500001027046CEF80C20FEF7B2FA40F6007C5C
:10466000C2F2000C60464FF08041CCF80C10FEF70F
:10467000A7FA40F61073C2F200034FF44062C4F28E
:1046800000021846DA60BDE80840FEF799BA00BF9C
:10469000037810B5012B044610D06268A068116839
:1046A000E368B0FBF1F0441E117AA0B200220824A6
:1046B0001A605C609862D9601A6110BD40F6F061C2
:1046C000C2F20001884223D040F6007CC2F2000C06
:1046D00060453AD040F61073C2F200039842DCD134
:1046E0004FF48053C4F20203DA6942F00800D86143
:1046F0001969322041F008021A6100221A61702102
:10470000FDF74EFA4FF42243C0F24A43A360C4E7D8
:104710004FF4805CC4F2020CDCF8182042F4006014
:10472000CCF81800DCF80C10002241F400631920CA
:10473000CCF80C307021CCF80C20FDF731FA4FF496
:104740002240C0F24A40A060A7E74FF48053C4F271
:104750000203DA6942F00100D86119691C2041F0B6
:104760000102C9E7AFF30080AFF30080AFF3008030
:10477000C3684A1E00200121DA625961586218613B
:10478000DA6842EA01000522D8601A60704700BF6B
:104790004FF46053C4F20103998988B240F080025B
:1047A0009A817047AFF30080AFF30080AFF30080D1
:1047B0004FF48843C4F20003998988B240F0800224
:1047C0009A817047AFF30080AFF30080AFF30080B1
:1047D0004FF49043C4F20003998988B240F08002FC
:1047E0009A817047AFF30080AFF30080AFF3008091
:1047F0002DE9F041D0F8D4500646AF892C88BFB2DD
:10480000A4B2E30542D4202383F31188A10620D566
:1048100006F1040814F00F0F404611D014F00801FF
:1048200018BF8021E20748BF41F02001A30748BF1D
:1048300041F04001640748BF41F48071FDF750FE2C
:10484000A9883046C9B2FEF7D3FA288884B2A006F8
:10485000E0D4002383F31188390601D5220624D43D
:10486000630611D5202383F311881021301DFDF735
:1048700037FE002383F311884FF63F7107EA0100EA
:104880004FF6BF73A8812B80BDE8F081202383F30E
:1048900011884FF400710430FDF722FE002383F3EA
:1048A00011884FF6FF632B80ADE7202383F3118837
:1048B00006F13000FDF75CFF0028A8BFA88003DBED
:1048C000002383F31188CBE7301D0821FDF708FE94
:1048D00027F0C00C4CF04002AA81F1E7AFF3008052
:1048E00040F6207008B5C2F20000FFF781FFBDE876
:1048F0000840FDF7F5B800BFAFF30080AFF30080CC
:1049000040F6F87008B5C2F20000FFF771FFBDE88D
:104910000840FDF7E5B800BFAFF30080AFF30080BB
:1049200041F2D00008B5C2F20000FFF761FFBDE818
:104930000840FDF7D5B800BFAFF30080AFF30080AB
:1049400070B540F62076C2F2000644F2917230460D
:104950000021C0F6000240F6F875FEF711FAC2F227
:1049600000054FF4605344F2B172C4F201032846CB
:104970000021C0F6000241F2D004C2F20004C6F8E1
:10498000D430FEF7FDF94FF4884344F2D172C4F2FB
:10499000000320460021C0F60002C5F8D430FEF71F
:1049A000EFF94FF49043C4F20003C4F8D43070BD63
:1049B00038B54BF68064037AC0F60004002918BFAE
:1049C0000C46012B054628D0D5F8D4304FF4605062
:1049D000C4F20100834221680BBF4FF422404FF420
:1049E000A240C0F24A40C0F22520B0FBF1F21A8189
:1049F000B4F804C0E08821894CF4045242F02C023F
:104A000040F0400C41F001010020A3F810C0998251
:104A10009A8118801A889B8838BD40F62071C2F2AE
:104A2000000188421AD040F6F871C2F200018842B3
:104A300023D041F2D001C2F200018842C4D14FF428
:104A4000805CC4F2020CDCF81C30272043F4802286
:104A5000CCF81C20C021FDF7A3F8B5E74FF4805C2B
:104A6000C4F2020CDCF81830252043F48042CCF864
:104A70001820C021FDF794F8A6E74FF4805EC4F239
:104A8000020EDEF81C30262043F40032CEF81C2043
:104A9000C021FDF785F897E7AFF30080AFF3008002
:104AA000FEF78EBCAFF30080AFF30080AFF3008061
:104AB0000023C4F20103586840F01A025A6070479C
:104AC0002DE9F04F8DB009AC0394DDF80CC00DF169
:104AD0002503CCEB0307029307974CF6CD434BF627
:104AE000F067CCF6CC43C0F6000705460C461646E8
:104AF00006930597217851B1671C25290AD02B68A8
:104B000028469A683C46904721780029F4D10DB098
:104B1000BDE8F08F63782D2B00F005820021049111
:104B2000A3F12E02D2F1000949EB0204302B08BF99
:104B300044F001044FF020091CB17B784FF030099C
:104B400001373C464FF0000B07E0327804360BEBA0
:104B50008B0302EB430B17F8013FA3F13000C2B205
:104B60000134092AF3D92A2BEFD000212E2B00F093
:104B7000C681A3F16C02D2F1000A4AEB02074C2B6A
:104B800008BF47F001071FB122780AB1013413466C
:104B9000A3F1440CBCF1340F00F26781DFE81CF094
:104BA0001701650165016501650117016501650171
:104BB000650165016501AB0165016501650165017F
:104BC00065016C0165016501AD0165016501650166
:104BD0006501650165016501650165016501CA0041
:104BE0001701650165016501650117016501650131
:104BF000650165016501AB01650165016501350070
:104C000065016C0165016501AD013768DDF814804F
:104C100047F6FF73002F18BFB84698F80000043617
:104C2000002908BF194682464FF02009002800F0ED
:104C30008B806FEA080A414498F8012001EB0A09C9
:104C400008F1010A09F001005346A2B18A4512D0C9
:104C500028B113F8017F0AF1010A57B90BE058781F
:104C60000AF1010A013330B15F780AF1010A013318
:104C70000FB18A45F3D1C8EB0A0A0498CAEB0B02BC
:104C80004FF0200922EAE27B002864D0BAF1000F3D
:104C900026DD47462B68C2446FEA080017F8011B5F
:104CA0000AEB00089A6828469047574508F0010823
:104CB00016D0B8F1000F03D02B6817F8011B0AE0DB
:104CC0002B68B84618F8011B9A68284690472B684D
:104CD000797808F101079A68284690475745EFD13F
:104CE000BBF1000F3FF406AF2F680BF1FF3EBA682F
:104CF0002846774649460EF0010B9047002F3FF4B7
:104D0000F9AEBBF1000F07D0296828468B684946E9
:104D10009847013F3FF4EEAE28684946826828462E
:104D200090472968013F8B68284649469847013FCC
:104D3000F2D1DFE63168DDF81CA08DF824100436CE
:104D40004FF020090DF124080498CAEB0B0222EA67
:104D5000E27B00289AD1CBF1000BBBF1000F95D07C
:104D6000A9F13003D3F1000E98F800704EEB030167
:104D70002D2F14BF002101F00101002940F0D8803F
:104D800028686FEA0B0C8368494628460CF0010737
:104D900098471BF1010B3FF479AF47B129682846CA
:104DA0008B68494698471BF1010B3FF46FAF2868A9
:104DB000494683682846984729680BF1010B8A68A1
:104DC0002846494690471BF1010BF0D15EE7326857
:104DD0000436002AA8BF0DF12408C0F2B38008F100
:104DE0000B0CC246DDF8188061461746CDF804C0AA
:104DF000A8FB02C3A8FB07C7DB0803EB8300A2EBF9
:104E0000400001393030FF0808701A46F0D1D04612
:104E1000DDF804A06FEA0802C1EB0A0A08EB0A07F2
:104E200007EB020C5FEACC73424611D5424602F80A
:104E3000010B11F8010F134603F8010BBB420CD014
:104E400091F801C0481C82F801C0407802315A1C18
:104E5000134603F8010BBB42F2D1039B08EB0A0196
:104E6000C3EB010A0DF124086EE78DF82430DDF85C
:104E70001CA00DF1240867E70A2732680DF12E0007
:104E800004361146B2FBF7FA07FB1A2808F1300383
:104E9000392BC8BF08F13703B1FBF7F18046524602
:104EA00000F801390029EDD10DF12F07DDF80CC014
:104EB000C8EB070A09AF6FEA0C0107EB0A004218BA
:104EC000D20739460FD58DF824300DF1250118F899
:104ED000013F08E098F8017008F101034F705B781A
:104EE00008F10208511C0A4602F8013B8242F1D146
:104EF0000DF1240828E70827BFE71027BDE7204663
:104F0000002110F8013B01EB8107A3F13004E2B26C
:104F1000092A044604D92A2B7FF42BAE32780436B2
:104F200002EB4701EDE70120A71CA3780490F7E509
:104F3000296828468A682D21904708F101080AF15E
:104F4000FF3A1DE72D218DF8241052420DF125085E
:104F500045E700BFAFF30080AFF30080AFF3008000
:104F60000A68F8B50D46064682B10C4601F10807FD
:104F70004BF640713046C0F60001083405F0F8FBEE
:104F8000601B3B1853F8082C002AF1D1F8BD00BF74
:104F9000012970B5044615467EDD16684BF68C7106
:104FA0003046C0F60001FCF74BF9A0B96E684BF62D
:104FB00094713046C0F60001FCF742F900285CD03D
:104FC0004BF6A8713046C0F60001FCF739F90346EC
:104FD000002844D02E684BF6BC713046C0F6000164
:104FE000FCF72EF988B96E684BF694713046C0F61E
:104FF0000001FCF725F9C0B14BF6A8713046C0F6A8
:105000000001FCF71DF9034600B170BD40F6F90E32
:105010004BF6D871C2F2000E2046C0F600018EF8A1
:105020000030BDE8704005F0A3BB40F6F90C4BF62C
:10503000C471C2F2000C0122C0F6000120468CF8B7
:10504000002005F095FB6E684BF6A8713046C0F65F
:105050000001FCF7F5F803460028D6D1D6E740F664
:10506000F806C2F200064BF6AC7133702046C0F66B
:10507000000105F07DFB2E68ADE740F6F803C2F2B3
:10508000000301224BF698712046C0F600011A7009
:1050900005F06EFB6E6893E74BF64471C0F60001B5
:1050A00005F066FB4BF664712046C0F6000105F082
:1050B0005FFB4BF674712046C0F60001BDE87040FE
:1050C00005F056BBAFF30080AFF30080AFF3008074
:1050D000002909DD4BF6EC714BF6F872C0F60001C1
:1050E000C0F6000205F044BB40F68853C2F200034C
:1050F000DA684CF20001C0F6000105F039BB00BFD0
:1051000030B5002983B004460CDD4BF6EC714CF24F
:105110000802C0F60001C0F6000203B0BDE830404E
:1051200005F026BB4CF210014CF22402C0F600013F
:10513000C0F6000205F01CFB4CF22C014CF24002C0
:105140002046C0F60001C0F6000205F011FB4CF24B
:105150004C014CF260022046C0F60001C0F600028D
:1051600005F006FB4CF268014CF27C022046C0F6CA
:105170000001C0F6000205F0FBFA4CF288014CF287
:105180009C022046C0F60001C0F6000205F0F0FACD
:105190004CF2B4014CF2C8022046C0F60001C0F641
:1051A000000205F0E5FA4CF2F0014CF20412204640
:1051B000C0F60001C0F6000205F0DAFA4CF2101158
:1051C0004CF224122046C0F60001C0F6000205F0A1
:1051D000CFFA4CF254154CF22C114CF244124CF212
:1051E0005013C0F600052046C0F60001C0F60002CC
:1051F000C0F60003009505F0BBFA03B030BD00BF58
:10520000002908B507DD4CF26011C0F60001BDE8C9
:10521000084005F0ADBA4CF27011C0F6000105F07F
:10522000A7FA6420FCF774FFBFF34F8F4FF46D4271
:10523000CEF20002D368042003F4E061C0F2FA5019
:1052400041EA0003D360BFF34F8FFEE7AFF3008066
:10525000F0B5002985B0054608DD4CF28011C0F696
:10526000000105B0BDE8F04005F082BA4CF294119F
:10527000C0F6000105F07CFAFDF70AF84BF600765F
:10528000C0F6000604461EE005F072FAA168E36865
:10529000276A0091A27F4CF2F011501E0190227FEC
:1052A000C0F6000156F822E028462246CDF808E074
:1052B000039705F05DFA2046FCF7FAFF0446142038
:1052C000FCF726FF84B1A3694CF2D4112846C0F63E
:1052D00000011A46002BD7D14CF2DC11C0F60001B8
:1052E000284605F045FAD1E705B0F0BDAFF30080E0
:1052F00030B5002983B0044607DD4CF21021C0F61A
:10530000000105F035FA03B030BD01A90020FDF71A
:1053100097FB0546FDF7D4FA4CF220210246C0F671
:105320000001204605F024FA4CF240212A4620468E
:10533000C0F6000105F01CFA4CF25821019A2046F3
:10534000C0F6000105F014FA094940F68040C2F2A7
:10535000000040F600034218C2F20003D21A4CF2D9
:1053600078212046C0F60001134605F001FACAE78D
:1053700068C90000AFF30080AFF30080AFF3008096
:1053800038B504460D46C0B108604BF66041C0F622
:1053900000012046FCF734F8241820462021FBF7B2
:1053A00077FF286018B1002300F8013B28602078BF
:1053B000002814BF2046002038BD0C68002CE4D122
:1053C000204638BDAFF30080AFF30080AFF300801C
:1053D00041F2E813C2F200031B607047AFF3008094
:1053E00000B545F2217383B00090C0F600030020A1
:1053F000FCF72EFF03B000BDAFF30080AFF30080D9
:105400002DE9F04F40F6885BC2F2000B8846DBF8CE
:105410000C1085B0013A05460191C146444600266C
:1054200008EB02072A68284653680DF10F01012294
:10543000984700287BD033B2012B69D0022B18BFCC
:105440009DF80F2075D01B2A00F0488100F2B28031
:10545000082A00F0CA800D2A00F01081042A00F00A
:10546000B4801F2ADED9BC42DCD240F6F80CC2F26E
:10547000000C23469CF8000003F8012B1C46002872
:10548000D0D040F6F901C2F200010C78002C40F0B7
:105490003381994500F03781C3EB0900CA464CF2CD
:1054A000A4211AF8012BC443C0F60001284600933A
:1054B00005F05EF9009B04F00104534526D064B169
:1054C0004CF2A4211AF8012B2846C0F600010093E3
:1054D00005F04EF9009B534518D0D1464CF2A4215B
:1054E00019F8012BC0F600012846009305F040F999
:1054F0004CF2A4219AF801202846C0F6000105F0DC
:1055000037F9009B09F1010A5345E6D19946FAE0C3
:105510009DF80F2000265B2A95D12A6828465368FB
:105520000DF10F01012202269847002883D10120A6
:1055300053E09DF80F00412801D0002672E740F6A5
:10554000F809C2F2000999F80060002E40F0C88006
:10555000BC4280F0DD8041F2A813C2F200031E7845
:10556000002E00F08980E243D119CA07A14619D55F
:1055700004F8016B13F8016FA146002E3FF452AFFF
:1055800009F8016BB9454C4611D05E780133002E05
:105590003FF448AF09F8016B5E784C460133002EAA
:1055A0003FF440AF09F8016BB9454C46EDD1B9461F
:1055B000002637E77F2A18D0C92A11D0212A7FF484
:1055C00050AF6420FCF7A4FD2CE74CF2A021284644
:1055D000C0F6000105F0CCF8012005B0BDE8F08F61
:1055E0004FF4FA70FCF794FD1CE744453FF41AAF02
:1055F00040F6F80CC2F2000C9CF80030002B3AD0B8
:105600004C452FD0CA466FEA09001AF8012B4CF21C
:10561000A4212318C0F60001284603F0010905F073
:10562000A7F8A2451ED0B9F1000F04D04CF2A42176
:105630001AF8012B0FE0D14619F8012B4CF2A421E6
:10564000C0F60001284605F093F89AF801204CF2C4
:10565000A42109F1010A2846C0F6000105F088F8E6
:10566000A245E8D14CF2A82108222846C0F6000144
:10567000134605F07DF8013CA146D3E640F6F80E4E
:10568000C2F2000E9EF8001000222270E9B14C45D3
:1056900007D04CF6A4012846C0F600014A4605F0A2
:1056A00067F898F8002041F2A811C2F2000152B147
:1056B00041F2A813C2F2000303F8012B18F8012FDE
:1056C0001946002AF8D100230B704CF27C112846B1
:1056D000C0F6000105F04CF800207EE70126A1E6A7
:1056E0004CF6A40141F2A8122846C0F60001C2F20D
:1056F000000205F03DF82BE7DBF80C00019C021BD3
:10570000322A3FF6C6AEDBF80C101C46019189E642
:10571000A146002686E600BFAFF30080AFF300800D
:105720002DE9F04740F69851C2F2000104688A69F9
:105730004CF2B023C0F600034CF2B82198B0456893
:10574000C0F600019361204605F012F84CF2C0212A
:10575000C0F60001204605F00BF84CF2DC214CF2BB
:1057600024024CF22413C0F60001C0F60002C0F679
:105770000003204604F0FCFF4CF254164CF2F421D6
:105780004CF244124CF25013C0F600062046C0F60C
:105790000001C0F60002C0F60003009604F0E8FF26
:1057A0007D4E4CF20831C0F60001204604F0E0FFC7
:1057B000204602A94022FFF723FE0746002833D1E6
:1057C00017A902A8FFF7DCFD17A980463846FFF7A6
:1057D000D7FD034600283FD0384617A91293FFF79C
:1057E000CFFD034600287CD0384617A91393FFF756
:1057F000C7FD0346002877D0384617A91493FFF752
:10580000BFFD0346002872D0384617A91593FFF74D
:10581000B7FD00286ED04CF21C312046C0F60001C6
:1058200004F0A6FF1697BCE74CF210312046C0F6F4
:10583000000104F09DFF202383F3118841F2E8105A
:105840000021C2F20000FCF74BFE0020FCF788FCB0
:10585000002018B0BDE8F08781460DF1600E0020F1
:105860000EEB890C4CF8180CB8F1000F99D04CF2E3
:1058700034314046C0F60001FBF7E2FC70B9B9F1E3
:10588000000FD8D04BF6EC714CF234322046C0F603
:105890000001C0F6000204F06BFF82E74CF23C31DD
:1058A0004046C0F60001FBF7CBFC30B340F6FC0AE3
:1058B000C2F2000ADAF80000574638B92CE008377F
:1058C000CAEB07039A1952F8080C28B34146FBF7B4
:1058D000B7FC0028F3D17F682046494612AAB84792
:1058E0005FE74FF00109B8E74FF00209B5E74FF065
:1058F0000309B2E74FF00409AFE7B9F1000F1FD079
:105900004BF6EC714CF23C322046C0F60001C0F67A
:10591000000204F02DFF44E76DB3286858B32F460A
:1059200005F1080A06E00837781B00EB0A0151F878
:10593000080C00B34146FBF783FC0028F3D1CAE70B
:105940004CF24431C0F60001204604F011FF40F64D
:10595000FC012046C2F20001FFF702FB1DB1204608
:105960002946FFF7FDFA4CF27C112046C0F60001F3
:1059700004F0FEFE15E74CF6A4012046C0F6000137
:10598000424604F0F5FE4CF25C312046C0F60001C0
:1059900004F0EEFE05E700BF04090020AFF300802D
:1059A0002DE9F04740F69853C2F2000399694CF292
:1059B000304240F6341741F22063C0F60002C2F2D2
:1059C0000007C2F200038A6182B03F6003F5F07104
:1059D00000221A601A759A6103F1180030338B4265
:1059E0000275F6D17820FCF793FB02F0F1F918B9B3
:1059F0006420FCF78DFBF8E74BF601244FF4FA60C6
:105A0000C0F60004FCF784FB0CB105F0F9FFDFF8E9
:105A1000648141F68026C2F2000608F5F074102079
:105A2000FCF776FB03F014FA10F08005F7D103F0D1
:105A30000FFA10F0400E41F2F01040F082804BF669
:105A40008123C2F200004FF42C714122C0F6000302
:105A5000CDF800E07546FCF743FB814603F0F8F90A
:105A600000F0C002AA4205D11020FCF751FB3178AA
:105A70000029F3D03220FCF74BFB202383F311885D
:105A80003D68BD4206D040F63410C2F2000000214D
:105A9000FCF726FD002383F311883220FCF738FB46
:105AA0004846FCF78DFB01F01BFC58F8140C314DF7
:105AB00020B195F80090B9F1000F51D001212E4D81
:105AC000A1B155F8140C20B195F80090B9F1000F70
:105AD0004BD01835A54209D120E059F8140C08B173
